{
  "_format": "hh-sol-artifact-1",
  "contractName": "HRDiagnose",
  "sourceName": "contracts/HRDiagnose.sol",
  "abi": [
    {
      "inputs": [],
      "stateMutability": "nonpayable",
      "type": "constructor"
    },
    {
      "anonymous": false,
      "inputs": [],
      "name": "DiagnoseRecorded",
      "type": "event"
    },
    {
      "anonymous": false,
      "inputs": [
        {
          "indexed": true,
          "internalType": "address",
          "name": "previousOwner",
          "type": "address"
        },
        {
          "indexed": true,
          "internalType": "address",
          "name": "newOwner",
          "type": "address"
        }
      ],
      "name": "OwnershipTransferred",
      "type": "event"
    },
    {
      "inputs": [
        {
          "internalType": "string",
          "name": "",
          "type": "string"
        }
      ],
      "name": "diagnoses",
      "outputs": [
        {
          "internalType": "string",
          "name": "diagnose",
          "type": "string"
        },
        {
          "internalType": "uint256",
          "name": "diagnoseTime",
          "type": "uint256"
        }
      ],
      "stateMutability": "view",
      "type": "function"
    },
    {
      "inputs": [],
      "name": "getMyDiagnoses",
      "outputs": [
        {
          "internalType": "string[]",
          "name": "",
          "type": "string[]"
        }
      ],
      "stateMutability": "view",
      "type": "function"
    },
    {
      "inputs": [
        {
          "internalType": "address",
          "name": "_patientAddress",
          "type": "address"
        }
      ],
      "name": "getPatientDiagnoses",
      "outputs": [
        {
          "internalType": "string[]",
          "name": "",
          "type": "string[]"
        }
      ],
      "stateMutability": "view",
      "type": "function"
    },
    {
      "inputs": [],
      "name": "owner",
      "outputs": [
        {
          "internalType": "address",
          "name": "",
          "type": "address"
        }
      ],
      "stateMutability": "view",
      "type": "function"
    },
    {
      "inputs": [
        {
          "internalType": "address",
          "name": "",
          "type": "address"
        },
        {
          "internalType": "uint256",
          "name": "",
          "type": "uint256"
        }
      ],
      "name": "patiendDiagnoses",
      "outputs": [
        {
          "internalType": "string",
          "name": "",
          "type": "string"
        }
      ],
      "stateMutability": "view",
      "type": "function"
    },
    {
      "inputs": [
        {
          "internalType": "string",
          "name": "_ipfsHash",
          "type": "string"
        },
        {
          "internalType": "string",
          "name": "_aiDiagnose",
          "type": "string"
        }
      ],
      "name": "recordDiagnose",
      "outputs": [],
      "stateMutability": "nonpayable",
      "type": "function"
    },
    {
      "inputs": [],
      "name": "renounceOwnership",
      "outputs": [],
      "stateMutability": "nonpayable",
      "type": "function"
    },
    {
      "inputs": [
        {
          "internalType": "address",
          "name": "newOwner",
          "type": "address"
        }
      ],
      "name": "transferOwnership",
      "outputs": [],
      "stateMutability": "nonpayable",
      "type": "function"
    }
  ],
  "bytecode": "0x6080806040523461005b5760008054336001600160a01b0319821681178355916001600160a01b03909116907f8be0079c531659141344cd1fd0a4f28419497f9722a3daafe3b4186f6b6457e09080a3610c5290816100618239f35b600080fdfe6040608081526004908136101561001557600080fd5b600091823560e01c80632f8b90411461082c57806353e46fd414610386578063715018a61461032c5780638da5cb5b14610304578063a77ec1be1461022f578063d58ba8b3146101ac578063e92917f81461013e5763f2fde38b1461007957600080fd5b3461013a57602036600319011261013a57610092610a06565b9061009b610afc565b6001600160a01b039182169283156100e857505082546001600160a01b0319811683178455167f8be0079c531659141344cd1fd0a4f28419497f9722a3daafe3b4186f6b6457e08380a380f35b906020608492519162461bcd60e51b8352820152602660248201527f4f776e61626c653a206e6577206f776e657220697320746865207a65726f206160448201526564647265737360d01b6064820152fd5b8280fd5b5050346101a857806003193601126101a857610158610a06565b6001600160a01b031682526002602052808220805460243591908210156101a4579060208461018d936101a096522001610a56565b90519182916020835260208301906108eb565b0390f35b8380fd5b5080fd5b50823461022c57602036600319011261022c5781359067ffffffffffffffff821161022c57506101e46101f6926020923691016109aa565b818451938285809451938492016108c8565b8101600181520301902090600161020c83610a56565b92015461022282519383859485528401906108eb565b9060208301520390f35b80fd5b82843461022c576020806003193601126101a85761024b610a06565b610253610afc565b6001600160a01b031682526002815282822080549061027182610b6b565b9261027e86519485610972565b82845280840191855280852085925b8484106102e8578787876102a18151610b83565b915b81518110156102db57806102ba6102d69284610bf2565b516102c58286610bf2565b526102d08185610bf2565b50610bcd565b6102a3565b8351806101a08582610910565b60018381926102f685610a56565b81520192019301929061028d565b5050346101a857816003193601126101a857905490516001600160a01b039091168152602090f35b833461022c578060031936011261022c57610345610afc565b80546001600160a01b03198116825581906001600160a01b03167f8be0079c531659141344cd1fd0a4f28419497f9722a3daafe3b4186f6b6457e08280a380f35b50903461013a578060031936011261013a5767ffffffffffffffff918035838111610828576103b890369083016109aa565b916024918235858111610824576103d290369083016109aa565b94825195838701878110838211176108125784528652602092838701904282528051978751610404818b898c016108c8565b890198868160019b8c815203019020905192835185811161080057908a918c61042d8554610a1c565b96601f978b8982116107c9575b50508a9188841160011461075c57919083610751575b5050600019600383901b1c191690831b1783555b519101553389526002855280892096875461047e81610b6b565b9861048b84519a8b610972565b818a528b52868b208b908b898c015b8a858510610736575050505050508751898101809111610724576104bd90610b83565b97898b815b6106eb575b5050516104df916104d8828b610bf2565b5288610bf2565b50338952600285528820928651966801000000000000000088116106d95785908554898755808a10610663575b50969496019589528489209389965b88881061054a578a7f48fc7bb4c9c8c505a213b6363112ee3479db3b2dcd07b5af0c6dfd32457d33228180a180f35b8051908151868111610651578b9189918e6105658b54610a1c565b89811161061b575b5083908983116001146105ae57908596836105a3575b5050600019600383901b1c191690841b1789555b0196019701969461051b565b015190503880610583565b90601f1983168c8352858320925b8181106105f857509086978488959493106105df575b505050811b018955610597565b015160001960f88460031b161c191690553880806105d2565b9497939686929691938786015181550195019301928f95929693918d95926105bc565b610642908c835285832060058c808701821c830193898810610648575b01901c0190610b54565b3861056d565b93508293610638565b634e487b7160e01b8d5260418552838dfd5b8a8a848e8a81522092830192015b82811061067f57505061050c565b90919293508c61068f8254610a1c565b806106a2575b505001908a889392610671565b8781116001146106b7575081555b8c38610695565b8282526106d0888c8420920160051c8201858301610b54565b818355556106b0565b634e487b7160e01b8a5260418252868afd5b825181101561071f57808b61070e826107076107199588610bf2565b5192610bf2565b526102d0818d610bf2565b816104c2565b6104c7565b634e487b7160e01b8b5260118652878bfd5b829161074185610a56565b8152019201920191908c9061049a565b015190503880610450565b9190601f1984168784528c8420935b8d8282106107a8575050908487959493921061078f575b505050811b018355610464565b015160001960f88460031b161c19169055388080610782565b9192939596978291958786015181550195019301908f96959493929161076b565b6107f0918885528a8286209181880160051c83019388106107f7575b0160051c0190610b54565b388b61043a565b925081926107e5565b634e487b7160e01b8c5260418752888cfd5b634e487b7160e01b8952604184528589fd5b8680fd5b8480fd5b82843461022c578060031936011261022c57610846610afc565b33815260206002815282822080549061085e82610b6b565b9261086b86519485610972565b82845280840191855280852085925b8484106108ac5787878761088e8151610b83565b915b81518110156102db57806102ba6108a79284610bf2565b610890565b60018381926108ba85610a56565b81520192019301929061087a565b60005b8381106108db5750506000910152565b81810151838201526020016108cb565b90602091610904815180928185528580860191016108c8565b601f01601f1916010190565b602080820190808352835180925260408301928160408460051b8301019501936000915b8483106109445750505050505090565b9091929394958480610962600193603f198682030187528a516108eb565b9801930193019194939290610934565b90601f8019910116810190811067ffffffffffffffff82111761099457604052565b634e487b7160e01b600052604160045260246000fd5b81601f82011215610a015780359067ffffffffffffffff821161099457604051926109df601f8401601f191660200185610972565b82845260208383010111610a0157816000926020809301838601378301015290565b600080fd5b600435906001600160a01b0382168203610a0157565b90600182811c92168015610a4c575b6020831014610a3657565b634e487b7160e01b600052602260045260246000fd5b91607f1691610a2b565b9060405191826000825492610a6a84610a1c565b908184526001948581169081600014610ad95750600114610a96575b5050610a9492500383610972565b565b9093915060005260209081600020936000915b818310610ac1575050610a9493508201013880610a86565b85548884018501529485019487945091830191610aa9565b915050610a9494506020925060ff191682840152151560051b8201013880610a86565b6000546001600160a01b03163303610b1057565b606460405162461bcd60e51b815260206004820152602060248201527f4f776e61626c653a2063616c6c6572206973206e6f7420746865206f776e65726044820152fd5b818110610b5f575050565b60008155600101610b54565b67ffffffffffffffff81116109945760051b60200190565b90610b8d82610b6b565b610b9a6040519182610972565b8281528092610bab601f1991610b6b565b019060005b828110610bbc57505050565b806060602080938501015201610bb0565b6000198114610bdc5760010190565b634e487b7160e01b600052601160045260246000fd5b8051821015610c065760209160051b010190565b634e487b7160e01b600052603260045260246000fdfea264697066735822122093eb49efbbe75e764af398f0737abc3f757a721a460278c2b3c9cd097191416d64736f6c63430008130033",
  "linkReferences": {},
  "deployedLinkReferences": {}
}