{
  "_format": "hh-sol-artifact-1",
  "contractName": "HRDiagnose",
  "sourceName": "contracts/HRDiagnose.sol",
  "abi": [
    {
      "inputs": [],
      "stateMutability": "nonpayable",
      "type": "constructor"
    },
    {
      "anonymous": false,
      "inputs": [],
      "name": "DiagnoseRecorded",
      "type": "event"
    },
    {
      "anonymous": false,
      "inputs": [
        {
          "indexed": true,
          "internalType": "address",
          "name": "previousOwner",
          "type": "address"
        },
        {
          "indexed": true,
          "internalType": "address",
          "name": "newOwner",
          "type": "address"
        }
      ],
      "name": "OwnershipTransferred",
      "type": "event"
    },
    {
      "inputs": [
        {
          "internalType": "string",
          "name": "",
          "type": "string"
        }
      ],
      "name": "diagnoses",
      "outputs": [
        {
          "internalType": "string",
          "name": "diagnose",
          "type": "string"
        },
        {
          "internalType": "uint256",
          "name": "diagnoseTime",
          "type": "uint256"
        }
      ],
      "stateMutability": "view",
      "type": "function"
    },
    {
      "inputs": [],
      "name": "getPatientDiagnoses",
      "outputs": [
        {
          "internalType": "string[]",
          "name": "",
          "type": "string[]"
        }
      ],
      "stateMutability": "view",
      "type": "function"
    },
    {
      "inputs": [],
      "name": "owner",
      "outputs": [
        {
          "internalType": "address",
          "name": "",
          "type": "address"
        }
      ],
      "stateMutability": "view",
      "type": "function"
    },
    {
      "inputs": [
        {
          "internalType": "address",
          "name": "",
          "type": "address"
        },
        {
          "internalType": "uint256",
          "name": "",
          "type": "uint256"
        }
      ],
      "name": "patiendDiagnoses",
      "outputs": [
        {
          "internalType": "string",
          "name": "",
          "type": "string"
        }
      ],
      "stateMutability": "view",
      "type": "function"
    },
    {
      "inputs": [
        {
          "internalType": "string",
          "name": "_ipfsHash",
          "type": "string"
        },
        {
          "internalType": "string",
          "name": "_aiDiagnose",
          "type": "string"
        }
      ],
      "name": "recordDiagnose",
      "outputs": [],
      "stateMutability": "nonpayable",
      "type": "function"
    },
    {
      "inputs": [],
      "name": "renounceOwnership",
      "outputs": [],
      "stateMutability": "nonpayable",
      "type": "function"
    },
    {
      "inputs": [
        {
          "internalType": "address",
          "name": "newOwner",
          "type": "address"
        }
      ],
      "name": "transferOwnership",
      "outputs": [],
      "stateMutability": "nonpayable",
      "type": "function"
    }
  ],
  "bytecode": "0x6080806040523461005b5760008054336001600160a01b0319821681178355916001600160a01b03909116907f8be0079c531659141344cd1fd0a4f28419497f9722a3daafe3b4186f6b6457e09080a3610b8d90816100618239f35b600080fdfe6040608081526004908136101561001557600080fd5b600091823560e01c806353e46fd4146103bf578063715018a61461036557806374c688cf1461024c5780638da5cb5b14610224578063d58ba8b3146101a1578063e92917f8146101335763f2fde38b1461006e57600080fd5b3461012f57602036600319011261012f57610087610a21565b90610090610a37565b6001600160a01b039182169283156100dd57505082546001600160a01b0319811683178455167f8be0079c531659141344cd1fd0a4f28419497f9722a3daafe3b4186f6b6457e08380a380f35b906020608492519162461bcd60e51b8352820152602660248201527f4f776e61626c653a206e6577206f776e657220697320746865207a65726f206160448201526564647265737360d01b6064820152fd5b8280fd5b50503461019d578060031936011261019d5761014d610a21565b6001600160a01b031682526002602052808220805460243591908210156101995790602084610182936101959652200161097b565b905191829160208352602083019061091c565b0390f35b8380fd5b5080fd5b5082346102215760203660031901126102215781359067ffffffffffffffff821161022157506101d96101eb9260209236910161089d565b818451938285809451938492016108f9565b810160018152030190209060016102018361097b565b920154610217825193838594855284019061091c565b9060208301520390f35b80fd5b50503461019d578160031936011261019d57905490516001600160a01b039091168152602090f35b828434610221578060031936011261022157610266610a37565b33815260206002815282822092835461027e81610aa6565b9461028b83519687610865565b81865284528284208490848088015b8484106103475750505050506102b08451610abe565b91835b85518110156102eb57806102ca6102e69288610b2d565b516102d58287610b2d565b526102e08186610b2d565b50610b08565b6102b3565b50828483519280840190808552835180925280868601968360051b870101940192955b82871061031b5785850386f35b909192938280610337600193603f198a8203018652885161091c565b960192019601959291909261030e565b60019182916103558561097b565b815201920192019190859061029a565b833461022157806003193601126102215761037e610a37565b80546001600160a01b03198116825581906001600160a01b03167f8be0079c531659141344cd1fd0a4f28419497f9722a3daafe3b4186f6b6457e08280a380f35b50903461012f578060031936011261012f5767ffffffffffffffff918035838111610861576103f1903690830161089d565b91602491823585811161085d5761040b903690830161089d565b948251958387018781108382111761084b578452865260209283870190428252805197875161043d818b898c016108f9565b890198868160019b8c815203019020905192835185811161083957908a918c6104668554610941565b96601f978b898211610802575b50508a918884116001146107955791908361078a575b5050600019600383901b1c191690831b1783555b51910155338952600285528089209687546104b781610aa6565b986104c484519a8b610865565b818a528b52868b208b908b898c015b8a85851061076f57505050505050875189810180911161075d576104f690610abe565b97898b815b610724575b50505161051891610511828b610b2d565b5288610b2d565b50338952600285528820928651966801000000000000000088116107125785908554898755808a1061069c575b50969496019589528489209389965b888810610583578a7f48fc7bb4c9c8c505a213b6363112ee3479db3b2dcd07b5af0c6dfd32457d33228180a180f35b805190815186811161068a578b9189918e61059e8b54610941565b898111610654575b5083908983116001146105e757908596836105dc575b5050600019600383901b1c191690841b1789555b01960197019694610554565b0151905038806105bc565b90601f1983168c8352858320925b8181106106315750908697848895949310610618575b505050811b0189556105d0565b015160001960f88460031b161c1916905538808061060b565b9497939686929691938786015181550195019301928f95929693918d95926105f5565b61067b908c835285832060058c808701821c830193898810610681575b01901c0190610a8f565b386105a6565b93508293610671565b634e487b7160e01b8d5260418552838dfd5b8a8a848e8a81522092830192015b8281106106b8575050610545565b90919293508c6106c88254610941565b806106db575b505001908a8893926106aa565b8781116001146106f0575081555b8c386106ce565b828252610709888c8420920160051c8201858301610a8f565b818355556106e9565b634e487b7160e01b8a5260418252868afd5b825181101561075857808b610747826107406107529588610b2d565b5192610b2d565b526102e0818d610b2d565b816104fb565b610500565b634e487b7160e01b8b5260118652878bfd5b829161077a8561097b565b8152019201920191908c906104d3565b015190503880610489565b9190601f1984168784528c8420935b8d8282106107e157505090848795949392106107c8575b505050811b01835561049d565b015160001960f88460031b161c191690553880806107bb565b9192939596978291958786015181550195019301908f9695949392916107a4565b610829918885528a8286209181880160051c8301938810610830575b0160051c0190610a8f565b388b610473565b9250819261081e565b634e487b7160e01b8c5260418752888cfd5b634e487b7160e01b8952604184528589fd5b8680fd5b8480fd5b90601f8019910116810190811067ffffffffffffffff82111761088757604052565b634e487b7160e01b600052604160045260246000fd5b81601f820112156108f45780359067ffffffffffffffff821161088757604051926108d2601f8401601f191660200185610865565b828452602083830101116108f457816000926020809301838601378301015290565b600080fd5b60005b83811061090c5750506000910152565b81810151838201526020016108fc565b90602091610935815180928185528580860191016108f9565b601f01601f1916010190565b90600182811c92168015610971575b602083101461095b57565b634e487b7160e01b600052602260045260246000fd5b91607f1691610950565b906040519182600082549261098f84610941565b9081845260019485811690816000146109fe57506001146109bb575b50506109b992500383610865565b565b9093915060005260209081600020936000915b8183106109e65750506109b9935082010138806109ab565b855488840185015294850194879450918301916109ce565b9150506109b994506020925060ff191682840152151560051b82010138806109ab565b600435906001600160a01b03821682036108f457565b6000546001600160a01b03163303610a4b57565b606460405162461bcd60e51b815260206004820152602060248201527f4f776e61626c653a2063616c6c6572206973206e6f7420746865206f776e65726044820152fd5b818110610a9a575050565b60008155600101610a8f565b67ffffffffffffffff81116108875760051b60200190565b90610ac882610aa6565b610ad56040519182610865565b8281528092610ae6601f1991610aa6565b019060005b828110610af757505050565b806060602080938501015201610aeb565b6000198114610b175760010190565b634e487b7160e01b600052601160045260246000fd5b8051821015610b415760209160051b010190565b634e487b7160e01b600052603260045260246000fdfea264697066735822122078becd18f86f5fef34c48cd666922d5189c9e33deeceac998d3235e18026549464736f6c63430008130033",
  "linkReferences": {},
  "deployedLinkReferences": {}
}